:060000000A128A110C280F
:10000800FE00030EF2000A08F3000A128A15F02C0B
:100018000A128A110F28F901831320308400543002
:100028000A128A152E240A128A1183010A128A11C9
:100038001D280A128A15F1260A128A110A128A152F
:100048004D240A128A11D03083120313E7000030BE
:10005800E8000A128A1536240A128A11013083121E
:100068000313E7000030E8000A128A1536240A1242
:100078008A1114300A128A155A250A128A11831213
:100088000313EA00EB016A08E7006B08E8000A12AC
:100098008A1536240A128A110A128A1559240A1254
:1000A8008A110A128A154D240A128A11D030831235
:1000B8000313E7000030E8000A128A1536240A12F2
:1000C8008A11003083120313E700E8000A128A1528
:1000D80036240A128A1100300A128A155A250A1281
:1000E8008A1183120313EA00EB016A08E7006B0820
:1000F800E8000A128A1536240A128A110A128A1589
:1001080059240A128A110A128A154D240A128A11D0
:10011800D03083120313E7000030E8000A128A1572
:1001280036240A128A11023083120313E7000030C2
:10013800E8000A128A1536240A128A110B300A12AC
:100148008A155A250A128A1183120313EA00EB0151
:100158006A08E7006B08E8000A128A1536240A12B2
:100168008A110A128A1559240A128A110A128A1542
:100178004D240A128A11D03083120313E70000308D
:10018800E8000A128A1536240A128A1104308312EA
:100198000313E7000030E8000A128A1536240A1211
:1001A8008A1108300A128A155A250A128A118312EE
:1001B8000313EA00EB016A08E7006B08E8000A127B
:1001C8008A1536240A128A110A128A1559240A1223
:1001D8008A110A128A154D240A128A11D030831204
:1001E8000313E7000030E8000A128A1536240A12C1
:1001F8008A11053083120313E7000030E8000A1261
:100208008A1536240A128A1108300A128A155A25C4
:100218000A128A1183120313EA00EB016A08E70045
:100228006B08E8000A128A1536240A128A110A1283
:100238008A1559240A128A110A128A154D240A129B
:100248008A11D03083120313E7000030E8000A1245
:100258008A1536240A128A11063083120313E7001E
:100268000030E8000A128A1536240A128A1117305B
:100278000A128A155A250A128A1183120313EA00F0
:10028800EB016A08E7006B08E8000A128A153624B1
:100298000A128A110A128A1559240A128A111A3066
:1002A80083120313EB00F730EA00EA0B5929EB0B32
:1002B80059295E290A128A157F240A128A110A12FC
:1002C8008A154D240A128A11D03083120313E700CD
:1002D8000030E8000A128A1536240A128A11003002
:1002E80083120313E700E8000A128A1536240A125B
:1002F8008A110A128A1559240A128A110A128A15B1
:100308004D240A128A11D03083120313E7000030FB
:10031800E8000A128A1536240A128A11003083125C
:100328000313E700E8000A128A1536240A128A1114
:100338000A128A1541240A128A11D1308312031332
:10034800E7000030E8000A128A1536240A128A11DA
:100358000030F400F5000A128A11CB270A128A111C
:1003680074080A128A15D4240A128A1183120313F4
:10037800EA00EB016A08AC006B08AD000A128A15A6
:1003880059240A128A111A3083120313EB00F7302A
:10039800EA00EA0BCD29EB0BCD29D2290A128A15DE
:1003A8004D240A128A11D03083120313E70000305B
:1003B800E8000A128A1536240A128A1101308312BB
:1003C8000313E7000030E8000A128A1536240A12DF
:1003D8008A110A128A1559240A128A110A128A15D0
:1003E8004D240A128A11D03083120313E70000301B
:1003F800E8000A128A1536240A128A11013083127B
:100408000313E7000030E8000A128A1536240A129E
:100418008A110A128A1541240A128A11D1308312CC
:100428000313E7000030E8000A128A1536240A127E
:100438008A110030F400F5000A128A11CB270A123B
:100448008A1174080A128A15D4240A128A1183128E
:100458000313EA00EB016A08AA006B08AB000A1252
:100468008A1559240A128A111A3083120313EB00D1
:10047800F730EA00EA0B3E2AEB0B3E2A432A0A121F
:100488008A154D240A128A11D03083120313E7000B
:100498000030E8000A128A1536240A128A1102303E
:1004A80083120313E7000030E8000A128A15362485
:1004B8000A128A110A128A1559240A128A110A1272
:1004C8008A154D240A128A11D03083120313E700CB
:1004D8000030E8000A128A1536240A128A110230FE
:1004E80083120313E7000030E8000A128A15362445
:1004F8000A128A110A128A1541240A128A11D13065
:1005080083120313E7000030E8000A128A15362424
:100518000A128A110030F400F5000A128A11CB275A
:100528000A128A1174080A128A15D4240A128A1126
:1005380083120313EA00EB016A08A8006B08A900FC
:100548000A128A1559240A128A111A3083120313BF
:10055800EB00F730EA00EA0BAF2AEB0BAF2AB42A1C
:100568000A128A154D240A128A11D03083120313F5
:10057800E7000030E8000A128A1536240A128A11A8
:10058800043083120313E7000030E8000A128A15CA
:1005980036240A128A110A128A1559240A128A1153
:1005A8000A128A154D240A128A11D03083120313B5
:1005B800E7000030E8000A128A1536240A128A1168
:1005C800043083120313E7000030E8000A128A158A
:1005D80036240A128A110A128A1541240A128A112B
:1005E800D13083120313E7000030E8000A128A159D
:1005F80036240A128A110030F400F5000A128A1112
:10060800CB270A128A1174080A128A15D4240A12EE
:100618008A1183120313EA00EB016A08A6006B082B
:10062800A7000A128A1559240A128A111A3083124D
:100638000313EB00F730EA00EA0B202BEB0B202B1F
:10064800252B0A128A154D240A128A11D0308312DA
:100658000313E7000030E8000A128A1536240A124C
:100668008A11053083120313E7000030E8000A12EC
:100678008A1536240A128A110A128A1559240A126E
:100688008A110A128A154D240A128A11D03083124F
:100698000313E7000030E8000A128A1536240A120C
:1006A8008A11053083120313E7000030E8000A12AC
:1006B8008A1536240A128A110A128A1541240A1246
:1006C8008A11D13083120313E7000030E8000A12C0
:1006D8008A1536240A128A110030F400F5000A122D
:1006E8008A11CB270A128A1174080A128A15D4248F
:1006F8000A128A1183120313EA00EB016A08A400A4
:100708006B08A5000A128A1559240A128A111A3090
:1007180083120313EB00F730EA00EA0B912BEB0B83
:10072800912B962B0A128A154D240A128A11D03061
:1007380083120313E7000030E8000A128A153624F2
:100748000A128A11063083120313E7000030E8000A
:100758000A128A1536240A128A110A128A1559248D
:100768000A128A110A128A154D240A128A11D030E7
:1007780083120313E7000030E8000A128A153624B2
:100788000A128A11063083120313E7000030E800CA
:100798000A128A1536240A128A110A128A15412465
:1007A8000A128A11D13083120313E7000030E800DF
:1007B8000A128A1536240A128A110030F400F5004C
:1007C8000A128A11CB270A128A1174080A128A158A
:1007D800D4240A128A1183120313EA00EB016A086F
:1007E800A2006B08A3000A128A1559240A128A115A
:1007F8001A3083120313EB00F730EA00EA0B022CDD
:10080800EB0B022C072C831203132C080A128A15EF
:10081800A3260A128A110D30F70001300A128A1530
:100828000E250A128A11153083120313DD002F08D2
:10083800EA00EB016A08DE006B08DF004F300A129D
:100848008A1186260A128A114F30F6000030F70006
:100858000A128A15CD250A128A111530831203133C
:10086800DD003008EA00EB016A08DE006B08DF00F3
:100878004F300A128A1186260A128A114F30F60062
:100888000030F7000A128A15CD250A128A111A308B
:1008980083120313EB00F730EA00EA0B512CEB0B41
:1008A800512C562C0C30F70001300A128A150E25EF
:1008B8000A128A111A30F6008030F7000A128A15D7
:1008C800CD250A128A11831203132A080A128A15DF
:1008D800A3260A128A110A30F70001300A128A1573
:1008E8000E250A128A11153083120313DD002F0812
:1008F800EA00EB016A08DE006B08DF0045300A12E7
:100908008A1186260A128A114530F6000030F7004F
:100918000A128A15CD250A128A111530831203137B
:10092800DD003008EA00EB016A08DE006B08DF0032
:1009380045300A128A1186260A128A114530F600B5
:100948000030F7000A128A15CD250A128A111A30CA
:1009580083120313EB00F730EA00EA0BB12CEB0B20
:10096800B12CB62C0930F70001300A128A150E2571
:100978000A128A111A30F6008030F7000A128A1516
:10098800CD250A128A118312031328080A128A1520
:10099800A3260A128A110730F70001300A128A15B5
:1009A8000E250A128A11153083120313DD002F0851
:1009B800EA00EB016A08DE006B08DF0040300A122B
:1009C8008A1186260A128A114030F6000030F70094
:1009D8000A128A15CD250A128A11153083120313BB
:1009E800DD003008EA00EB016A08DE006B08DF0072
:1009F80040300A128A1186260A128A114030F600FF
:100A08000030F7000A128A15CD250A128A111A3009
:100A180083120313EB00F730EA00EA0B112DEB0BFE
:100A2800112D162D8312031326080A128A15A326E0
:100A38000A128A110730F70002300A128A150E25A9
:100A48000A128A11153083120313DD002F08EA00F9
:100A5800EB016A08DE006B08DF003B300A128A11DE
:100A680086260A128A113B30F6000030F7000A1277
:100A78008A15CD250A128A11153083120313DD0059
:100A88003008EA00EB016A08DE006B08DF003B3043
:100A98000A128A1186260A128A113B30F6000030A3
:100AA800F7000A128A15CD250A128A111A30831204
:100AB8000313EB00F730EA00EA0B602DEB0B602D17
:100AC800652D0930F70002300A128A150E250A1220
:100AD8008A111830F6008030F7000A128A15CD25E1
:100AE8000A128A118312031324080A128A15A326EC
:100AF8000A128A110A30F70002300A128A150E25E6
:100B08000A128A11153083120313DD002F08EA0038
:100B1800EB016A08DE006B08DF0036300A128A1122
:100B280086260A128A113630F6000030F7000A12BB
:100B38008A15CD250A128A11153083120313DD0098
:100B48003008EA00EB016A08DE006B08DF00363087
:100B58000A128A1186260A128A113630F6000030E7
:100B6800F7000A128A15CD250A128A111A30831243
:100B78000313EB00F730EA00EA0BC02DEB0BC02D96
:100B8800C52D0C30F70002300A128A150E250A12FC
:100B98008A111830F6008030F7000A128A15CD2520
:100BA8000A128A118312031322080A128A15A3262D
:100BB8000A128A110D30F70002300A128A150E2522
:100BC8000A128A11153083120313DD002F08EA0078
:100BD800EB016A08DE006B08DF0031300A128A1167
:100BE80086260A128A113130F6000030F7000A1200
:100BF8008A15CD250A128A11153083120313DD00D8
:100C08003008EA00EB016A08DE006B08DF003130CB
:100C18000A128A1186260A128A113130F60000302B
:100C2800F7000A128A15CD250A128A111A30831282
:100C38000313EB00F730EA00EA0B202EEB0B202E13
:100C4800252E8312031320080A128A159E270A12DA
:100C58008A11F70102300A128A150E250A128A1122
:100C6800153083120313DD002E08EA00EB016A0831
:100C7800DE006B08DF004A300A128A1186260A1243
:100C88008A114A30F6000030F7000A128A15CD257D
:100C98000A128A11153083120313DD002F08EA00A7
:100CA800EB016A08DE006B08DF004A300A128A117D
:100CB80086260A128A114A30F6000030F7000A1216
:100CC8008A15CD250A128A11153083120313DD0007
:100CD8003008EA00EB016A08DE006B08DF004A30E2
:100CE8000A128A1186260A128A114A30F600003042
:100CF800F7000A128A15CD250A128A1153290A12F9
:100D08008A110C2883120313E9005E30E3004D2F8B
:100D1800253068060319912E922E9C2E69088400AE
:100D28006808831380000130E0006008E9074D2F50
:100D3800E4010130DD07FF305D0784000A128A15DF
:100D48000A200A128A11E800E000E1016108003A6D
:100D58000319AF2E4D2F6008003A03195D2F643A2E
:100D68000319BA2E0D3A0319BA2E4D2F63088400C1
:100D780083130008E600840A0008E7000230E00058
:100D88006008E307E71FC92ECA2ED32E0330E00000
:100D98006008E404E609E709E60A0319E70AE80136
:100DA800E80A6808E0006007013E84000A128A1514
:100DB8000A200A128A11E1000A128A150A200A1268
:100DC8008A11E20062086702031DEC2E61086602C0
:100DD8000318EF2EF02EF12EFB2E0130E0006008F4
:100DE800E80705306806031DFA2EFB2ED52E640889
:100DF80003390319002F012F0A2F690884002D30A9
:100E0800831380000130E0006008E9076808E50006
:100E1800442F0A30D7000030D8006508E00060078A
:100E2800013E84000A128A150A200A128A11F40067
:100E38000A128A150A200A128A11F5006708F700B3
:100E48006608F6000A128A1513260A128A1175080E
:100E580083120313DA007408D9000A128A1591253F
:100E68000A128A11831203135708303EE8006908F2
:100E780084006808831380000130E0006008E907F7
:100E8800FF30E0006008E507650A031D4C2F4D2F71
:100E98000D2F0130DD07FF305D0784000A128A1527
:100EA8000A200A128A11E8006808031D5C2F5D2FCA
:100EB8008C2E6908840083138001080083120313B1
:100EC800DC01D71F682F692F702FD609D709D60ADA
:100ED8000319D70ADC01DC0AD91F732F742F7D2F61
:100EE800D809D909D80A0319D90A0130DA005A08E9
:100EF800DC06DD01DE01560857040319842F852F0F
:100F0800BC2FDB01DB0A932F01300310D60DD70D60
:100F1800FF3E031D892F0130DA005A08DB07D71F6F
:100F2800962F972F882F01300310DD0DDE0DFF3E21
:100F3800031D982F57085902031DA42F560858025D
:100F4800031CA72FA82FAF2F5608D8025708031C39
:100F5800D903D9025D1401300310D70CD60CFF3E1B
:100F6800031DB02F0130DB02031DBB2FBC2F972FB1
:100F78005C080319C02FC12FC62FDD09DE09DD0A61
:100F88000319DE0A5E08D7005D08D60008000A12B9
:100F98008A1565240A128A118316031391150A12F9
:100FA8008A1565240A128A11831203131308F6009E
:100FB800F7017608D4007708D5000A128A15652447
:100FC8000A128A1174037504031DEB2FEC2FF02FFE
:100FD800831603139112F32F831603139116111618
:0E0FE800831203135508F5005408F4000800A6
:10100000FF1B0A2883137F1883170008840A03191B
:10101000FF0A080008308A000408840A82070034A6
:10102000013400340A34003464340034E8340334C6
:1010300010342734533431342034203420342034D5
:1010400020342034203400342534643400342F34E8
:0610500000343A340034C4
:10185C0064008001840A04060319003404062F2C4A
:10186C000A128A1565240A128A1583120313670853
:10187C0093008C1108000A128A1565240A128A1525
:10188C00831603139114831203138C1108000A128C
:10189C008A1565240A128A158316031311148312F0
:1018AC0003138C1108000A128A1565240A128A1572
:1018BC00831603131115831203138C11080083165E
:1018CC00031314196A2C6B2C652C11081F39031D7A
:1018DC00702C712C652C080000300A128A15AB2470
:1018EC000A128A1501300A128A15AB240A128A15BB
:1018FC000800831203139F18842C852C8C2C213008
:10190C00F400F40B872C831203139F140800283067
:10191C008312031394008316031391017730930001
:10192C0080309400871507160800F5008312031306
:10193C0007177508880087171A30F400F40BA42CCD
:10194C0000008312031387130800F600831203139D
:10195C0007137608880087170B30F5006230F40007
:10196C00F40BB62CF50BB62C000083120313871363
:10197C000800F700F601771CC42CC52CC92C740880
:10198C00F5007508F6070310F40D0310F70C770833
:10199C00031DD12CD22CC12C760808008312031302
:1019AC00D7000F305705D4000A30F4005708D50083
:1019BC0004300310D50CFF3E031DDF2C55080A1212
:1019CC008A15BF240A128A15831203135407D600F2
:1019DC0056080800831203130C1FF52CF62C072D48
:1019EC001F0CF000700C0F39053A031DFE2CFF2C58
:1019FC00062D1E08F000F1017008A0007108A1006E
:101A0C000C1373088A00720E8300FE0E7E0E090002
:101A1C00F8007803031D132D142D1D2D77080F3995
:101A2C0080380A128A15AB240A128A152B2D023023
:101A3C007806031D222D232D2B2D77080F39C03846
:101A4C000A128A15AB240A128A1508008312031392
:101A5C001F141F08C33914389F00831603139F13D8
:101A6C001F129F12831203139F10492D3F309F05A5
:101A7C00592D1F083F3940389F00592D1F083F39F9
:101A8C0080389F00592D7508003A03194E2D592D99
:101A9C007408013A03193C2D053A03193F2D0C3AF1
:101AAC000319442D592D080083120313E6000A3044
:101ABC00F4000030F5006608DF00E0015F08F60076
:101ACC006008F7000A128A1543270A128A1574084F
:101ADC0083120313E1007508E2000A30D6000030CF
:101AEC00D7006608E300E4016308D8006408D90055
:101AFC000A128A1162270A128A15831203135608D6
:101B0C00E50003300310E50DFF3E031D882D031087
:101B1C00650D610408008312031357085804031958
:101B2C00982D992DC82DDC01DC0AA72D013003104E
:101B3C00D70DD80DFF3E031D9D2D0130DB005B083A
:101B4C00DC07D81FAA2DAB2D9C2D58085A02031D5B
:101B5C00B12D57085902031CB42DB52DBB2D5708B8
:101B6C00D9025808031CDA03DA0201300310D80C2E
:101B7C00D70CFF3E031DBC2D0130DC02031DC72D0D
:101B8C00C82DAB2D5A08D8005908D700080083126D
:101B9C000313D701D801F62D57087607D50077081F
:101BAC00D4000318D40AD71FDC2DD40383120313DB
:101BBC005408D6005608FF00550884000A128A15EE
:101BCC0000200A128A150A128A159B240A128A15F9
:101BDC00013083120313D7070318D80A0030D80733
:101BEC0057087607D5007708D4000318D40AD71FF6
:101BFC00002ED403831203135408D6005608FF009A
:101C0C00550884000A128A1500200A128A15003A17
:101C1C00031D112E122ED22D080083120313D40192
:101C2C00D5017408750403191C2E1D2E542ED601D3
:101C3C00D60A2B2E01300310F40DF50DFF3E031DBB
:101C4C00212E0130F8007808D607F51F2E2E2F2EE6
:101C5C00202E01300310D40DD50DFF3E031D302E68
:101C6C0075087702031D3C2E74087602031C3F2E68
:101C7C00402E472E7408F6027508031CF703F70272
:101C8C00541401300310F50CF40CFF3E031D482EC8
:101C9C000130D602031D532E542E2F2E5508F5005D
:101CAC005408F40008008312031388012730F8004D
:101CBC00F530F700F70B602EF80B602E30300A125F
:101CCC008A15AB240A128A150B30F8006230F70023
:101CDC00F70B6E2EF80B6E2E000030300A128A15A0
:101CEC00AB240A128A154230F700F70B7B2E00004A
:101CFC0030300A128A15AB240A128A1538300A12AF
:101D0C008A15AB240A128A1500300A128A15AB24E4
:101D1C000A128A150C300A128A15AB240A128A157B
:101D2C0000300A128A15AB240A128A1506300A12E0
:101D3C008A15AB240A128A15080083120313E300D8
:101D4C000A30D6000030D7006308DF00E0015F08DE
:101D5C00F6006008F7006430F4000030F5000A1259
:101D6C008A1543270A128A15750883120313D900A2
:101D7C007408D8000A128A1162270A128A15831273
:101D8C0003135608AF006308DF00E0015F08F6009C
:101D9C006008F7006430F4000030F5000A128A1570
:101DAC0043270A128A15750883120313E20074087C
:101DBC00E1000A30F4000030F5006208F700610819
:101DCC00F6000A128A1543270A128A157408831220
:101DDC000313B00008007030831603138F040F1424
:101DEC000830F4000030F5000A128A152C250A126E
:101DFC008A158316031788018901831603130711AB
:101E0C0087100711071387138801860183120313A8
:101E1C008801071687150030F7000130F600863070
:101E2C00F500A030F4000A128A158D240A128A15C6
:101E3C000A128A1559260A128A150A128A15722450
:101E4C000A128A15F701F70A01300A128A150E25B3
:101E5C000A128A150B30F6008030F7000A128A1528
:101E6C00CD250A128A150B17831603130C17831230
:101E7C0003139F108B170B17080083120313D50144
:101E8C00F71F492F4A2F512FF609F709F60A0319A4
:101E9C00F70AD501D50AF51F542F552F5A2FF409DF
:101EAC00F509F40A0319F50A7408750403195F2F70
:101EBC00602F8F2FD401D40A6E2F01300310F40D34
:101ECC00F50DFF3E031D642F0130F8007808D40790
:101EDC00F51F712F722F632F75087702031D782F52
:101EEC0074087602031C7B2F7C2F822F7408F60259
:101EFC007508031CF703F70201300310F50CF40C02
:101F0C00FF3E031D832F0130D402031D8E2F8F2F14
:101F1C00722F55080319932F942F992FF609F7094F
:101F2C00F60A0319F70A7708F5007608F40008009A
:101F3C0083120313E3006430D6000030D70063082B
:101F4C00DF00E0015F08D8006008D9000A128A118E
:101F5C0062270A128A15831203135608AE000A3040
:101F6C00D6000030D7006308DF00E0015F08F60000
:101F7C006008F7006430F4000030F5000A128A158E
:101F8C0043270A128A15750883120313D9007408A3
:101F9C00D8000A128A1162270A128A1583120313B7
:101FAC005608AF006308DF00E0015F08F600600828
:101FBC00F7006430F4000030F5000A128A1543274C
:101FCC000A128A15750883120313E2007408E100E3
:101FDC000A30F4000030F5006208F7006108F600E2
:101FEC000A128A1543270A128A15740883120313DE
:041FFC00B000080029
:08400000FF3FFF3FFF3FFF3FC0
:04400E00D520FF3F7B
:00000001FF
