:100000000A128A11F32FFF1B0D2883137F18831701
:100010000008840A0319FF0A080000308A00040857
:10002000840A82070034013400340A340034643412
:100030000034E8340334103427342034533431345A
:1000400020342034203453343234203420342034CB
:0C0050005334333400342534643400345D
:10034800F000700883120313930008008316031348
:10035800141CAF29B029AA29080064008001840A66
:100368000406031900340406B2290A128A11AA21C4
:100378000A128A11831203131308080000300A12A4
:100388008A11DF210A128A1101300A128A11DF212B
:100398000A128A110800F100831203130717710863
:1003A800880087171A30F000F00BD8290000831254
:1003B800031387130800F20083120313071372084C
:1003C800880087170B30F1006230F000F00BEA2943
:1003D800F10BEA2900008312031387130800F300C6
:1003E800831603138712731DFA29FB29FF29720844
:1003F80094008715032A7008720494008711730803
:1004080071048312031394000800F4007403031D9D
:100418000E2A0F2A182A73080F3980380A128A11EF
:10042800DF210A128A11262A02307406031D1D2AAA
:100438001E2A262A73080F39C0380A128A11DF21AA
:100448000A128A1108007808790403192C2A2D2A1F
:100458005C2AFD01FD0A3B2A01300310F80DF90D55
:10046800FF3E031D312A0130FC007C08FD07F91FFF
:100478003E2A3F2A302A79087B02031D452A78083C
:100488007A02031C482A492A4F2A7808FA0279086E
:10049800031CFB03FB0201300310F90CF80CFF3EB0
:1004A800031D502A0130FD02031D5B2A5C2A3F2AE6
:1004B8007B08F9007A08F8000800703083160313E7
:1004C8008F040F10831603178801890183160313FD
:1004D80007118710071107138713880186018312F4
:1004E8000313880107158714F001F101F201203088
:1004F8000A128A11F3210A128A110A128A11232375
:100508000A128A110A128A11C2210A128A11F301E7
:10051800F30A01300A128A1109220A128A110B30D1
:10052800F2008030F3000A128A119D220A128A1101
:100538000800F701F801C22A77087207F500730866
:10054800F4000318F40AF71FAA2AF4037408F60043
:10055800760883120313FF00750884000A128A11B3
:1005680003200A128A110A128A11CF210A128A114B
:100578000130F7070318F80A0030F8077708720700
:10058800F5007308F4000318F40AF71FCC2AF403E3
:100598007408F600760883120313FF0075088400B8
:1005A8000A128A1103200A128A11003A031DDD2A51
:1005B800DE2AA02A0800F501F60170087104031963
:1005C800E62AE72A1E2BF701F70AF52A013003105D
:1005D800F00DF10DFF3E031DEB2A0130F400740805
:1005E800F707F11FF82AF92AEA2A01300310F50D56
:1005F800F60DFF3E031DFA2A71087302031D062B30
:1006080070087202031C092B0A2B112B7008F202C6
:100618007108031CF303F302751401300310F10C85
:10062800F00CFF3E031D122B0130F702031D1D2B9A
:100638001E2BF92A7608F1007508F00008008312CD
:10064800031388012730F400F530F300F30B2A2B4D
:10065800F40B2A2B30300A128A11DF210A128A1170
:100668000B30F4006230F300F30B382BF40B382B0B
:10067800000030300A128A11DF210A128A11423032
:10068800F300F30B452B000030300A128A11DF21EA
:100698000A128A1138300A128A11DF210A128A11C5
:1006A80000300A128A11DF210A128A110C300A124C
:1006B8008A11DF210A128A1100300A128A11DF21F9
:1006C8000A128A1106300A128A11DF210A128A11C7
:1006D8000800F601F31F712B722B792BF209F3092D
:1006E800F20A0319F30AF601F60AF11F7C2B7D2B97
:1006F800822BF009F109F00A0319F10A7008710454
:100708000319872B882BB72BF501F50A962B013097
:100718000310F00DF10DFF3E031D8C2B0130F4008A
:100728007408F507F11F992B9A2B8B2B710873020C
:10073800031DA02B70087202031CA32BA42BAA2B49
:100748007008F2027108031CF303F302013003106E
:10075800F10CF00CFF3E031DAB2B0130F502031D1D
:10076800B62BB72B9A2B76080319BB2BBC2BC12BA6
:10077800F209F309F20A0319F30A7308F10072087F
:10078800F000080083120313CD006430F700003036
:10079800F8004D08FC00FD017C08F9007D08FA000E
:1007A8000A128A11E6240A128A117708831203139F
:1007B800B6000A30F7000030F8004D08FC00FD01D3
:1007C8007C08F2007D08F3006430F0000030F1008E
:1007D8000A128A116D230A128A117108FA00700828
:1007E800F9000A128A11E6240A128A11770883127C
:1007F8000313B5004D08FC00FD017C08F2007D08DC
:10080800F3006430F0000030F1000A128A116D2301
:100818000A128A11710883120313CC007008CB00E6
:100828000A30F0000030F1004C08F3004B08F200E9
:100838000A128A116D230A128A117008831203138F
:10084800B400080083120313CD006430F7000030B1
:10085800F8004D08FC00FD017C08F9007D08FA004D
:100868000A128A11E6240A128A11770883120313DE
:10087800B3000A30F7000030F8004D08FC00FD0115
:100888007C08F2007D08F3006430F0000030F100CD
:100898000A128A116D230A128A117108FA00700867
:1008A800F9000A128A11E6240A128A1177088312BB
:1008B8000313B2004D08FC00FD017C08F2007D081E
:1008C800F3006430F0000030F1000A128A116D2341
:1008D8000A128A11710883120313CC007008CB0026
:1008E8000A30F0000030F1004C08F3004B08F20029
:1008F8000A128A116D230A128A11700883120313CF
:10090800B100080083120313CD006430F7000030F3
:10091800F8004D08FC00FD017C08F9007D08FA008C
:100928000A128A11E6240A128A117708831203131D
:10093800B0000A30F7000030F8004D08FC00FD0157
:100948007C08F2007D08F3006430F0000030F1000C
:100958000A128A116D230A128A117108FA007008A6
:10096800F9000A128A11E6240A128A1177088312FA
:100978000313AF004D08FC00FD017C08F2007D0860
:10098800F3006430F0000030F1000A128A116D2380
:100998000A128A11710883120313CC007008CB0065
:1009A8000A30F0000030F1004C08F3004B08F20068
:1009B8000A128A116D230A128A117008831203130E
:1009C800AE00080083120313C801F81FEC2CED2CAD
:1009D800F42CF709F809F70A0319F80AC801C80A34
:1009E800FA1FF72CF82C012DF909FA09F90A03194D
:1009F800FA0A0130FB007B08C806C901CA0177085A
:100A080078040319082D092D402DC701C70A172D91
:100A180001300310F70DF80DFF3E031D0D2D0130B9
:100A2800FB007B08C707F81F1A2D1B2D0C2D013062
:100A38000310C90DCA0DFF3E031D1C2D78087A024C
:100A4800031D282D77087902031C2B2D2C2D332DFF
:100A58007708F9027808031CFA03FA0249140130EE
:100A68000310F80CF70CFF3E031D342D0130C702AC
:100A7800031D3F2D402D1B2D48080319442D452DDE
:100A88004A2DC909CA09C90A0319CA0A4A08F80035
:100A98004908F700080083120313D2004830CD003C
:100AA800142E2530530603195A2D5B2D652D520837
:100AB80084005308831380000130CA004A08D20713
:100AC800142ECE010130C707FF30470784000A12F1
:100AD8008A110D200A128A11D300CA00CB014B08D3
:100AE800003A0319782D142E4A08003A0319242EC7
:100AF800643A0319832D0D3A0319832D142E4D08DA
:100B0800840083130008D000840A0008D100023052
:100B1800CA004A08CD07D11F922D932D9C2D033072
:100B2800CA004A08CE04D009D109D00A0319D10A4B
:100B3800D301D30A5308CA004A07013E84000A12A7
:100B48008A110D200A128A11CB000A128A110D206F
:100B58000A128A11CC004C085102031DB52D4B080E
:100B680050020318B82DB92DBA2DC42D0130CA0072
:100B78004A08D30705305306031DC32DC42D9E2DE7
:100B88004E0803390319C92DCA2DD32D52088400E4
:100B98002D30831380000130CA004A08D207530859
:100BA800CF000B2E0A30F8000030F9004F08CA00B9
:100BB8004A07013E84000A128A110D200A128A117E
:100BC800F0000A128A110D200A128A11F100510848
:100BD800F3005008F2000A128A11DF220A128A1161
:100BE8007108FB007008FA000A128A1127220A12FB
:100BF8008A117808303E83120313D3005208840008
:100C08005308831380000130CA004A08D207FF3016
:100C1800CA004A08CF074F0A031D132E142ED62DDB
:100C28000130C707FF30470784000A128A110D20D8
:100C38000A128A11D3005308031D232E242E552D82
:100C4800520884008313800108000A128A11612265
:100C58000A128A1183120313071103308312031334
:100C6800D5009730D400D40B372ED50B372E8312EE
:100C7800031306080A128A11A4210A128A1183167C
:100C88000313141C482E492E432E0A128A11B92127
:100C98000A128A1183120313AD000330831203135F
:100CA800D5009730D400D40B572ED50B572E83126E
:100CB80003130715413083120313D500ED30D40018
:100CC800D40B642ED50B642E692E83120313871060
:100CD800033083120313D5009730D400D40B722E3F
:100CE800D50B722E00300A128A11A4210A128A1119
:100CF80083160313141C812E822E7C2E0A128A114D
:100D0800B9210A128A1183120313AC00033083122B
:100D18000313D5009730D400D40B902ED50B902E0A
:100D280001300A128A11A4210A128A1183160313A8
:100D3800141C9F2EA02E9A2E0A128A11B9210A126B
:100D48008A1183120313AB008714413083120313F3
:100D5800D500ED30D400D40BAF2ED50BAF2EB42E6A
:100D6800831203132D080A128A11C6230A128A1144
:100D78000230F30002300A128A1109220A128A117B
:100D8800193083120313C7003608D400D50154085C
:100D9800C8005508C90042300A128A114F250A12A4
:100DA8008A114230F2000030F3000A128A119D22A3
:100DB8000A128A11193083120313C7003508D400A8
:100DC800D5015408C8005508C90042300A128A11D2
:100DD8004F250A128A114230F2000030F3000A123D
:100DE8008A119D220A128A11193083120313C7002F
:100DF8003408D400D5015408C8005508C900423049
:100E08000A128A114F250A128A114230F200003064
:100E1800F3000A128A119D220A128A111A308312CB
:100E28000313D500F730D400D40B182FD50B182F87
:100E38001D2F831203132C080A128A1126240A1262
:100E48008A110730F30002300A128A1109220A12A5
:100E58008A11193083120313C7003308D400D5014F
:100E68005408C8005508C9003D300A128A114F2598
:100E78000A128A113D30F2000030F3000A128A117A
:100E88009D220A128A11193083120313C7003208EF
:100E9800D400D5015408C8005508C9003D300A12CD
:100EA8008A114F250A128A113D30F2000030F300F2
:100EB8000A128A119D220A128A1119308312031309
:100EC800C7003108D400D5015408C8005508C90026
:100ED8003D300A128A114F250A128A113D30F2005C
:100EE8000030F3000A128A119D220A128A111A3060
:100EF80083120313D500F730D400D40B812FD50B00
:100F0800812F862F831203132B080A128A11862435
:100F18000A128A110C30F30002300A128A110922CF
:100F28000A128A11193083120313C7003008D4003B
:100F3800D5015408C8005508C90038300A128A116A
:100F48004F250A128A113830F2000030F3000A12D5
:100F58008A119D220A128A11193083120313C700BD
:100F68002F08D400D5015408C8005508C9003830E6
:100F78000A128A114F250A128A113830F2000030FD
:100F8800F3000A128A119D220A128A11193083125B
:100F98000313C7002E08D400D5015408C80055080B
:100FA800C90038300A128A114F250A128A113830BE
:100FB800F2000030F3000A128A119D220A128A11E7
:100FC8001A3083120313D500F730D400D40BEA2F5C
:100FD800D50BEA2FEF2F2E2E0A128A110028831321
:100FE8002030840047300A128A11B1210A128A116E
:080FF80083010A128A11292E5F
:08400000FF3FFF3FFF3FFF3FC0
:04400E00D420FF3F7C
:00000001FF
