:060000000A128A11FC2F18
:100F06008316031311141118892F8A2F862F0800B0
:100F16008316031311151119912F922F8E2F080086
:100F2600831603139115141C992F9A2F962F83124B
:100F3600031313080800F0007008831203139300CC
:100F46008C1DA62FA72FA32F8C11080028308312E3
:100F5600031394003130831603139300940187150D
:100F6600071608000A128A11A9270A128A11723076
:100F76000A128A11CC270A128A110A128A11932799
:100F86000A128A11831203138800BA2F0A128A11D1
:100F96000028F1000A128A1183270A128A11D0301A
:100FA6000A128A119E270A128A1100300A128A1121
:100FB6009E270A128A110A128A118B270A128A118F
:100FC6000A128A1183270A128A11D1300A128A114B
:100FD6009E270A128A11710884000A128A11932721
:100FE6000A128A1180000A128A118B270A128A11A4
:0A0FF600080083010A128A11B52FCA
:08400000FF3FFF3FFF3FFF3FC0
:04400E00FF3FFF3F32
:00000001FF
