:060000000A128A110C280F
:10000800FE00030EF2000A08F3000A128A111728EC
:100018000A128A110F28F601F701F801F901830184
:100028000A128A11FB28831203130C1F1C281D288F
:100038002E281F0CF000700C0F39053A031D2528D7
:1000480026282D281E08F000F1017008F600710816
:10005800F7000C138C1D3128322882281412141B27
:10006800362837283B28941F3A283B28402813086D
:10007800F90014139413141683160313941A4528BD
:1000880046286028141949284A286028831203132F
:100098001308F9008C11141683160313141C552821
:1000A800562850288312031313088800A630F0003E
:1000B800F00B5C2800007F28941A632864287F28A6
:1000C800141D672868287F28831203131308F90072
:1000D800831603131410760883120313930014165F
:1000E800A630F000F00B76280000831603131418CE
:1000F8007E287F287928831203138C1173088A00BD
:10010800720E8300FE0E7E0E0900831203131F1465
:100118001F08C33914389F00831603139F131F1237
:100128009F12831203139F10A6283F309F05B628FD
:100138001F083F3940389F00B6281F083F398038CC
:100148009F00B6287508003A0319AB28B62874082A
:10015800013A03199928053A03199C280C3A0319FE
:10016800A128B628080001308316031788008901E2
:100178007030831603138F040F1086018801013035
:100188008900831203138601880150300A128A11EC
:10019800E1200A128A110830F4000030F5000A1232
:1001A8008A1189200A128A110B17831603130C1758
:1001B800831203139F108B170800F400740883162A
:1001C8000313930036308312031394008030831690
:1001D8000313940001309100871507168B170B172E
:1001E800831203138C11831603138C1508000A124B
:1001F8008A11B7200A128A110A128A110D210A12CD
:100208008A11760883120313860000290A128A11BC
:100218000C28831203139F18122913291A29213035
:0E022800F400F40B1529831203139F14080031
:08400000FF3FFF3FFF3FFF3FC0
:04400E00D420FF3F7C
:00000001FF
