:060000000A128A110C280F
:10000800FE00030EF3000A08F4000A128A111B28E6
:100018000A128A110F28F501F601F701F801831277
:100028000313A401A50183010A128A119A288312D5
:1000380003138C1D2028212843280A128A112621FF
:100048000A128A118312031388000808031D2D2839
:100058002E28352877080A128A1136210A128A11A1
:1000680040280803031D39283A28402875080A1231
:100078008A1136210A128A11831203138C110C1F5C
:100088004628472858281F0CF100710C0F39053AEB
:10009800031D4F28502857281E08F100F201710847
:1000A800F7007208F8000C1374088A00730E8300B6
:1000B800FE0E7E0E090083160317880189010130A0
:1000C8008316031386008801850170308F040F1092
:1000D80083120313880185010830A0000030A100B5
:1000E8000A128A11C9200A128A118316031381136E
:1000F80095179617951696160B170C178312031358
:100108009F108B170B178C11831603138C158516EC
:100118008B150B1083120313A001A101A201243037
:100128000A128A11F7200A128A1108000A128A1183
:100138005F200A128A110A128A1115210A128A11DD
:1001480083120313861BA928AA28B528861FAD2861
:10015800AE28AA280130F5070318F60A0030F6077A
:100168009F28861AB828B9289F28861EBC28BD282B
:10017800B9287508FF3EF50076080318013EFF3ED2
:10018800F6009F280A128A110C28831203131F14E1
:100198001F08C33914389F00831603139F131F12B7
:1001A8009F12831203139F10E6283F309F05F628FD
:1001B8001F083F3940389F00F6281F083F3980380C
:1001C8009F00F6282108003A0319EB28F628200892
:1001D800013A0319D928053A0319DC280C3A0319FE
:1001E800E128F628080083120313A30083160313DB
:1001F800871283120313231D0229032909292208C0
:1002080083160313940087150F29200822048316E8
:100218000313940087118312031323082104940005
:100228000800831203139F181A291B292529203037
:1002380083120313A000A00B1F29000083120313CD
:100248009F1408000A128A112F210A128A11831298
:1002580003131308080083160313141C34293529C3
:100268002F290800F0007008831203139300080078
:08400000FF3FFF3FFF3FFF3FC0
:04400E00D420FF3F7C
:00000001FF
